:040000000CEF00F011
:10000800FACF19F0FBCF1AF0E9CF1BF01FED04F07F
:04001800A4EF08F059
:100800000080C094D44D6F646966696361646F2031
:10081000656C20536574506F696E7420613A2000D6
:100820004572726F72206D617175696E6F6C6100D7
:1008300044757479204379636C653A2000000600A2
:10084000EACF1CF0E1CF1DF0E2CF1EF0D9CF1FF0B0
:10085000DACF20F0F3CF21F0F4CF22F0F6CF23F05F
:10086000F7CF24F0F8CF25F0F5CF26F09EAAEFD0F1
:10087000C80E3B5C000E3C58D8B0DFD00101000E22
:100880003B24D96E0101010E3C20DA6E11EC0AF016
:10089000DF6EBED0000E026E440E016E0101010E2D
:1008A000046E0101000E036E000E066E040E056E4E
:1008B000D3EC08F0000E086E440E076E53EC06F001
:1008C00007C03DF008C03EF0000E3D5C040E3E58EF
:1008D000D8B017D03DC049F03EC04AF0080E036EB4
:1008E000050E026E02EC09F0000E036E440E026E5D
:1008F00002EC09F0000E036E0A0E026E02EC09F023
:100900000CD0080E036E200E026E02EC09F0000EF1
:10091000036E0A0E026E02EC09F0C7EC09F08BD0F0
:10092000FF0E495C030E4A58D8B023D0494A4A2AE0
:10093000000E126E440E116E49C013F04AC014F03E
:10094000000E166E0A0E156E30EC09F0080E036EDE
:10095000050E026E02EC09F0000E036E440E026EEC
:1009600002EC09F0000E036E0A0E026E02EC09F0B2
:100970000CD0080E036E200E026E02EC09F0000E81
:10098000036E0A0E026E02EC09F0C7EC09F053D0B8
:100990004A504910D8B42AD0000E495C040E4A5877
:1009A000D8B024D04906D8A04A06080E036E050E1A
:1009B000026E02EC09F0000E126E440E116E49C078
:1009C00013F04AC014F0000E166E0A0E156E30ECCD
:1009D00009F0000E036E440E026E02EC09F0000EE8
:1009E000036E0A0E026E02EC09F00CD0080E036EC4
:1009F000200E026E02EC09F0000E036E0A0E026E6B
:100A000002EC09F0C7EC09F016D03B4A3C2A13D09F
:100A10000101000E3B24D96E0101010E3C20DA6E6B
:100A2000DF500D0AD8B436D7260AD8B479D7060ACB
:100A3000D8B4AED7EAD79E9A0AD00101010E036E50
:100A40000101000E026E02EC09F0C7EC09F026C0AD
:100A5000F5FF25C0F8FF24C0F7FF23C0F6FF22C032
:100A6000F4FF21C0F3FF20C0DAFF1FC0D9FF1EC072
:100A7000E2FF1DC0E1FF1CC0EAFF1BC0E9FF1AC076
:100A8000FBFF19C0FAFF1100000E0001716F000E8C
:100A90000001726F800E946E000E956E4F0EAB16B5
:100AA000AC9ACF0E9D167C0E0001716F4D0E0001A9
:100AB000726F000172C060F00001616B0001715142
:100AC000B4EC07F09E9A9F9A9D8AF28C9E9AF28EC1
:100AD000070ECA6EBB0E20EC0AF049C060F04AC097
:100AE00061F082EC09F0DBEC05F0000E0001636FB1
:100AF000010EF1EC09F0140E0001706F7A0EE82E71
:100B0000FED7702FFCD7000E0001656F000E6AEC57
:100B100008F049C060F04AC061F082EC09F0000EB4
:100B20000001656F000E6AEC08F0080E0001696FA5
:100B3000300E0001686F6BEC07F049C068F04AC0E6
:100B400069F0040E00016A6F000E00016B6F010E68
:100B500000016C6F30EC08F0C30E0001706FCD0E19
:100B6000E82EFED7702FFCD700F0C30E0001706F87
:100B7000CD0EE82EFED7702FFCD700F0C30E00017B
:100B8000706FCD0EE82EFED7702FFCD700F0C30E8D
:100B90000001706FCD0EE82EFED7702FFCD700F04D
:100BA000C30E0001706FCD0EE82EFED7702FFCD75C
:100BB00000F08C70AED7140E0001656F7A0EE82E2F
:100BC000FED7652FFCD7000E0001606F030EB8EC56
:100BD00006F0070E0001656F7D0EE82EFED7652F2B
:100BE000FCD700F0000E0001606F030EB8EC06F0B9
:100BF000070E0001656F7D0EE82EFED7652FFCD72E
:100C000000F0000E0001606F030EB8EC06F0070E56
:100C10000001656F7D0EE82EFED7652FFCD700F032
:100C2000000E0001606F020EB8EC06F0000E00012D
:100C3000636F280EF1EC09F0070E0001656F7D0E61
:100C4000E82EFED7652FFCD700F0000E0001636F81
:100C50000C0EF1EC09F0070E0001656F7D0EE82E19
:100C6000FED7652FFCD700F0000E0001636F010E68
:100C7000F1EC09F0070E0001656F7D0EE82EFED73E
:100C8000652FFCD700F0000E0001636F060EF1EC3B
:100C900009F0070E0001656F7D0EE82EFED7652F67
:100CA000FCD700F0120002D0074A082A07C0D9FF7B
:100CB00008C0DAFFDF50200AD8B4F6D707C0D9FF42
:100CC00008C0DAFFDF50090AD8B4EED7000E0D6E67
:100CD000000E0C6E000E0B6E2D0E07C0D9FF08C063
:100CE000DAFFDF6202D00B2A23D02B0E07C0D9FF18
:100CF00008C0DAFFDF621ED01BD00CC001F00DC0AF
:100D000002F0000E046E0A0E036EDEEC09F007C05E
:100D1000D9FF08C0DAFFDF50096E0A6A01500926C0
:100D200002500A22D00E09240C6EFF0E0A200D6E0E
:100D3000074A082A07C0D9FF08C0DAFFDF5001ECD4
:100D40000AF0D8B0DAD70B50D8B40DD00CC009F0E7
:100D50000DC00AF0091E0A1E094A0A2A09C007F036
:100D60000AC008F004D00CC007F00DC008F0120053
:100D70000001626F000160B102D08C9401D08C84BC
:100D8000210EE82EFED700F062C061F0010E0001D6
:100D900061170001613B8C5000016119EF0B611973
:100DA0008C6E62C061F00001D8906133010E0001C9
:100DB00061170001613B61478C5000016119DF0B35
:100DC00061198C6E62C061F00001D890613300013E
:100DD000D8906133010E000161170001613B61474A
:100DE00061478C5000016119BF0B61198C6E62C0A4
:100DF00061F00001D89061330001D89061330001A7
:100E0000D8906133010E0001611700016133613335
:100E10008C50000161197F0B61198C6E8C86420E1B
:100E2000E82EFED700D08C96A60EE82EFED700D076
:100E300012000AC00EF00BC00FF00EC001F00FC080
:100E400002F00CC003F00DC004F059EC09F001C031
:100E50000EF002C00FF0084A092A0F500E10D8A455
:100E6000ECD708C0D9FF09C0DAFF000EDF6E080614
:100E7000D8A009060AC001F00BC002F00CC003F0B4
:100E80000DC004F0A6EC09F00150106E0AC001F08C
:100E90000BC002F00CC003F00DC004F059EC09F0D7
:100EA00001C00AF002C00BF0090E106402D0070E58
:100EB0001026300E102608C0D9FF09C0DAFF10C076
:100EC000DFFF0806D8A009060B500A10D8A4D2D715
:100ED000084A092A12003CD0000168C0F6FF000150
:100EE00069C0F7FF0800F5500A0AD8B40DD0010E0A
:100EF0000001636F000168C0F6FF000169C0F7FFE1
:100F00000800F550F1EC09F0422A4250100AD8B41A
:100F10000BD0000168C0F6FF000169C0F7FF0800B0
:100F2000F5500A0AD8A411D0432A4350020AD8A483
:100F300007D0000E0001656F000E6AEC08F005D0C6
:100F400043C065F0000E6AEC08F00001684B692BA5
:100F5000000168C0F6FF000169C0F7FF0800F55006
:100F60000009D8B41200B8D70001656F000EAC6E4E
:100F7000000EAB6E000165B1AC88000165A302D024
:100F8000AC8CAB8C000165B5AC8E000165A702D0BE
:100F9000AB8801D0AB8A000165B9AC849E98000192
:100FA00065BBAB86000165AD02D09D8A01D09D9ADC
:100FB0009E9A000165AF02D09D8801D09D9860C0C7
:100FC000AFFF000161C062F062C063F00001646BBA
:100FD00000016351B06EAC8AAB8E949C948EACB819
:100FE000ACBE01D0948C1200000E0001656F000EA3
:100FF0000001646F000163516211D8B42CD0010E5E
:101000000001666F06D00001D89062376337000197
:10101000662B000163AFF7D70001D89064376537BE
:10102000000162510001605D0001635100016159DE
:10103000D8A00AD0000162510001605F0001635135
:101040000001615B000164810001D8906333623369
:101050000001662FE1D764C060F065C061F0120046
:1010600000016A5100016B2731D068C060F069C08F
:1010700061F0000E0001636F0A0E0001626FF4EC74
:1010800007F0000160C06EF0000161C06FF0000168
:101090006E510A0DF35000080001682500016D6FC4
:1010A00000016B0700016A076CC065F000016B511D
:1010B0006AEC08F0010E0001636F00016D51300F02
:1010C000F1EC09F06EC068F06FC069F000016A676A
:1010D000CCD712000001676F040E0001655DD8B027
:1010E00032D0130E0001676501D02DD067C042F0E9
:1010F00065C043F067C066F000016551010D010E47
:10110000F324F66E080EF420F76E0800F550000187
:101110006627FA0E00F0E82EFDD7000E0001636F7F
:1011200000016651F1EC09F0FA0E00F0E82EFDD74F
:10113000000E0001636F00016651F1EC09F0FA0E38
:1011400000F0E82EFDD7120003EE00F0C80EEE6AA4
:10115000E806FDE102EE00F0C80EEE6AE806FDE1E9
:1011600001EE00F0C80EEE6AE806FDE100EE73F055
:10117000100EEE6AE806FDE100EE27F0220EEE6AA0
:10118000E806FDE1660EF66E140EF76E000EF86EC0
:101190000900F5CF49F00900F5CF4AF0000EF86ECE
:1011A000000144EF05F002C008F001C007F014D0C0
:1011B0000506D8A0060603C0D9FF04C0DAFF034A1B
:1011C000042A07C0E1FF08C0E2FF074A082ADFCF70
:1011D000E7FFE750D8B40DD006500510D8B409D0B9
:1011E000E7D707C0D9FF08C0DAFF000EDF6E074A55
:1011F000082A0506D8A006060528D8B40628D8B4BB
:101200001200EFD7ACA2FED702C0F6FF03C0F7FF73
:10121000F86A070EF76403D00800F55005D0F6CF42
:10122000E1FFF7CFE2FFE7502AEC0AF00250046E2C
:101230000350056E024A032A04C0F6FF05C0F7FFFB
:10124000F86A070EF76403D00800F55005D0F6CF12
:10125000E1FFF7CFE2FFE7500009D8B41200D2D780
:1012600012C018F011C017F01450800AF36E800EEF
:10127000F35C000ED8B4135CD8B00CD011C0D9FF09
:1012800012C0DAFF2D0EDF6E114A122A136C141EE3
:10129000D8B0142A12C009F011C008F013C00AF027
:1012A00014C00BF015C00CF016C00DF019EC07F0CF
:1012B0001200000E066E000E056E04500310D8B426
:1012C0001CD0010E076E04D0D89003360436072ACE
:1012D00004AEFAD7D890053606360350015C0450A8
:1012E0000258D8A005D00350015E0450025A058070
:1012F000D89004320332072EEDD705C001F006C0A6
:1013000002F01200000160C062F0000161C063F0F1
:10131000060ED890000162376337E82EFAD762C014
:1013200064F063C065F065C0BEFF64C062F0000198
:10133000D89062330001D8906233300E00016217FA
:10134000BD50CF0B00016211BD6E1200045003109E
:10135000D8B418D0010E056E04D0D89003360436E8
:10136000052A04AEFAD70350015C04500258D8A0F5
:1013700004D00350015E0450025AD8900432033264
:10138000052EF1D701C001F002C002F012000DD00D
:101390000101000E3B24D96E0101010E3C20DA6EE2
:1013A000000EDF6E3B06D8A03C063C503B10D8A494
:1013B000EFD7000E3C6E000E3B6E12000150030290
:1013C000F3CF05F0F4CF06F001500402F3500626E7
:1013D00002500302F350062605C001F006C002F0D9
:1013E00012000001646F63C060F0000164390F0BEC
:1013F000B8EC06F063C060F000016451B8EC06F090
:101400001200036E000E026E3A0E035CD8B005D0D7
:101410002F0E036402D0010E026E02C001F00130F3
:101420001200F20E3F16ABAC03D03F90ABB03F8042
:10143000ABB43F84ABB23F86AECF01F00150120097
:101440000001606F0C0EBD129494CA9460C0CBFF73
:10145000CA841200016EACAC03D0AC903FB2AC8039
:0814600001C0ADFF12000A00FB
:020000040020DA
:08000000FFFFFFFFFFFFFFFF00
:020000040030CA
:0E000000000C1F1EFF8381FF0FC00FE00F409A
:00000001FF
