:040000000CEF00F011
:10000800FACF1DF0FBCF1EF0E9CF1FF020ED04F072
:040018000BEF09F0F1
:100800000080C094D44D6F646966696361646F2031
:10081000656C20536574506F696E7420613A2000D6
:100820004572726F72206D617175696E6F6C610ACD
:100830000044757479204379636C653A20000000A8
:100840000600EACF20F0E1CF21F0E2CF22F0D9CFAD
:1008500023F0DACF24F0F3CF25F0F4CF26F0F6CF53
:1008600027F0F7CF28F0F8CF29F0F5CF2AF09EAA8D
:1008700055D14050800AF36E800EF35CC80ED8B498
:100880003F5CD8B027D10101000E3F24D96E010191
:10089000010E4020DA6E65EC0AF0DF6E0101000EF9
:1008A0003F24D96E0101010E4020DA6E0D0EDF6289
:1008B0005CD0000E026E480E016E0101010E046E46
:1008C0000101000E036E000E066E040E056E3AEC7A
:1008D00009F0000E086E480E076EBAEC06F007C06D
:1008E00041F008C042F042BE21D04250800AF36E6F
:1008F000840EF35C000ED8B4415CD8B017D041C070
:1009000083F042C084F0080E1A6E050E196E69EC71
:1009100009F0000E1A6E480E196E69EC09F0080E07
:100920001A6E2F0E196E69EC09F014D0080E1A6EAB
:10093000200E196E69EC09F00DD00101000E3F2464
:10094000D96E0101010E4020DA6E000EDF6E3F0607
:10095000D8A040064050800AF36E800EF35C010E72
:10096000D8B43F5CD8B0E9D7D5D00101000E3F2400
:10097000D96E0101010E4020DA6E2B0EDF624DD0E0
:10098000000E0001835D040E00018459D8B026D00A
:100990000001834B842B080E1A6E050E196E69EC4C
:1009A00009F0000184C012F0000183C011F0000EB4
:1009B000146E480E136E000E166E0A0E156E97EC2E
:1009C00009F011C019F012C01AF069EC09F0080E14
:1009D0001A6E2F0E196E69EC09F014D0080E1A6EFB
:1009E000200E196E69EC09F00DD00101000E3F24B4
:1009F000D96E0101010E4020DA6E000EDF6E3F0657
:100A0000D8A040064050800AF36E800EF35C010EC1
:100A1000D8B43F5CD8B0E9D77DD00101000E3F24A7
:100A2000D96E0101010E4020DA6E2D0EDF624ED02C
:100A3000000E0001835D040E00018459D8B027D058
:100A400000018307D8A08407080E1A6E050E196EE0
:100A500069EC09F0000184C012F0000183C011F0BC
:100A6000000E146E480E136E000E166E0A0E156EF2
:100A700097EC09F011C019F012C01AF069EC09F0F6
:100A8000080E1A6E2F0E196E69EC09F014D0080EBC
:100A90001A6E200E196E69EC09F00DD00101000EDE
:100AA0003F24D96E0101010E4020DA6E000EDF6E88
:100AB0003F06D8A040064050800AF36E800EF35CDB
:100AC000010ED8B43F5CD8B0E9D724D03F4A402AC1
:100AD0009E9A24D00101010E1A6E0101000E196EBA
:100AE00069EC09F00DD00101000E3F24D96E01011F
:100AF000010E4020DA6E000EDF6E3F06D8A04006E1
:100B00004050800AF36E800EF35C010ED8B43F5C57
:100B1000D8B0E9D7000E406E000E3F6E2AC0F5FF38
:100B200029C0F8FF28C0F7FF27C0F6FF26C0F4FF52
:100B300025C0F3FF24C0DAFF23C0D9FF22C0E2FFA3
:100B400021C0E1FF20C0EAFF1FC0E9FF1EC0FBFF7C
:100B50001DC0FAFF1100000E0001716F000E0001B0
:100B6000726F800E946E000E956E4F0EAB16AC9A9F
:100B7000CF0E9D167C0E0001716F4D0E0001726F3D
:100B8000000172C060F00001616B000171511BEC4B
:100B900008F09E9A9F9A9D8AF28C9E9AF28E070E7A
:100BA000CA6EBB0E74EC0AF083C060F084C061F0C2
:100BB000EDEC09F042EC06F0000E0001636F010E4F
:100BC00045EC0AF0140E0001706F7A0EE82EFED785
:100BD000702FFCD7000E0001656F000ED1EC08F0FD
:100BE00083C060F084C061F0EDEC09F0000E0001FC
:100BF000656F000ED1EC08F0080E0001696F310E30
:100C00000001686FD2EC07F083C068F084C069F01F
:100C1000040E00016A6F000E00016B6F010E0001EF
:100C20006C6F97EC08F0C30E0001706FCD0EE82ECC
:100C3000FED7702FFCD700F0C30E0001706FCD0EF1
:100C4000E82EFED7702FFCD700F0C30E0001706FA6
:100C5000CD0EE82EFED7702FFCD700F0C30E00019A
:100C6000706FCD0EE82EFED7702FFCD700F0C30EAC
:100C70000001706FCD0EE82EFED7702FFCD700F06C
:100C80008C70AED7140E0001656F7A0EE82EFED779
:100C9000652FFCD7000E0001606F030E1FEC07F0FC
:100CA000070E0001656F7D0EE82EFED7652FFCD77D
:100CB00000F0000E0001606F030E1FEC07F0070E3E
:100CC0000001656F7D0EE82EFED7652FFCD700F082
:100CD000000E0001606F030E1FEC07F0070E00010D
:100CE000656F7D0EE82EFED7652FFCD700F0000E55
:100CF0000001606F020E1FEC07F0000E0001636F31
:100D0000280E45EC0AF0070E0001656F7D0EE82EF7
:100D1000FED7652FFCD700F0000E0001636F0C0EAC
:100D200045EC0AF0070E0001656F7D0EE82EFED738
:100D3000652FFCD700F0000E0001636F010E45EC3B
:100D40000AF0070E0001656F7D0EE82EFED7652FB5
:100D5000FCD700F0000E0001636F060E45EC0AF0B0
:100D6000070E0001656F7D0EE82EFED7652FFCD7BC
:100D700000F0120002D0074A082A07C0D9FF08C0B5
:100D8000DAFFDF50200AD8B4F6D707C0D9FF08C071
:100D9000DAFFDF50090AD8B4EED7000E0D6E000E50
:100DA0000C6E000E0B6E2D0E07C0D9FF08C0DAFFC7
:100DB000DF6202D00B2A23D02B0E07C0D9FF08C058
:100DC000DAFFDF621ED01BD00CC001F00DC002F0B4
:100DD000000E046E0A0E036E32EC0AF007C0D9FF53
:100DE00008C0DAFFDF50096E0A6A01500926025076
:100DF0000A22D00E09240C6EFF0E0A200D6E074A3F
:100E0000082A07C0D9FF08C0DAFFDF5055EC0AF006
:100E1000D8B0DAD70B50D8B40DD00CC009F00DC043
:100E20000AF0091E0A1E094A0A2A09C007F00AC068
:100E300008F004D00CC007F00DC008F0120000014B
:100E4000626F000160B102D08C9401D08C84210EBD
:100E5000E82EFED700F062C061F0010E00016117BC
:100E60000001613B8C5000016119EF0B61198C6E20
:100E700062C061F00001D8906133010E000161177A
:100E80000001613B61478C5000016119DF0B611962
:100E90008C6E62C061F00001D89061330001D8907F
:100EA0006133010E000161170001613B6147614739
:100EB0008C5000016119BF0B61198C6E62C061F02A
:100EC0000001D89061330001D89061330001D890BF
:100ED0006133010E000161170001613361338C50F1
:100EE000000161197F0B61198C6E8C86420EE82E11
:100EF000FED700D08C96A60EE82EFED700D01200AA
:100F00000AC00EF00BC00FF00EC001F00FC002F0CF
:100F10000CC003F00DC004F0C4EC09F001C00EF0E9
:100F200002C00FF0084A092A0F500E10D8A4ECD7BF
:100F300008C0D9FF09C0DAFF000EDF6E0806D8A08E
:100F400009060AC001F00BC002F00CC003F00DC08E
:100F500004F011EC0AF00150106E0AC001F00BC051
:100F600002F00CC003F00DC004F0C4EC09F001C0A5
:100F70000AF002C00BF0090E106402D0070E102612
:100F8000300E102608C0D9FF09C0DAFF10C0DFFFFD
:100F90000806D8A009060B500A10D8A4D2D7084AD0
:100FA000092A12003CD0000168C0F6FF000169C0A8
:100FB000F7FF0800F5500A0AD8B40DD0010E000161
:100FC000636F000168C0F6FF000169C0F7FF080009
:100FD000F55045EC0AF0462A4650100AD8B40BD01A
:100FE000000168C0F6FF000169C0F7FF0800F55076
:100FF0000A0AD8A411D0472A4750020AD8A407D019
:10100000000E0001656F000ED1EC08F005D047C05E
:1010100065F0000ED1EC08F00001684B692B00016F
:1010200068C0F6FF000169C0F7FF0800F55000092D
:10103000D8B41200B8D70001656F000EAC6E000E78
:10104000AB6E000165B1AC88000165A302D0AC8C29
:10105000AB8C000165B5AC8E000165A702D0AB88F2
:1010600001D0AB8A000165B9AC849E98000165BBD4
:10107000AB86000165AD02D09D8A01D09D9A9E9AF3
:10108000000165AF02D09D8801D09D9860C0AFFF80
:10109000000161C062F062C063F00001646B000196
:1010A0006351B06EAC8AAB8E949C948EACB8ACBEDF
:1010B00001D0948C1200000E0001666F000E00013A
:1010C000656F000163516211D8B42CD0010E00018C
:1010D000646F06D00001D890623763370001642B3B
:1010E000000163AFF7D70001D8906537663700017C
:1010F00062510001605D0001635100016159D8A097
:101100000AD0000162510001605F000163510001DB
:10111000615B000165810001D89063336233000197
:10112000642FE1D765C060F066C061F01200000175
:101130006A5100016B2731D068C060F069C061F06E
:10114000000E0001636F0A0E0001626F5BEC08F095
:10115000000160C06EF0000161C06FF000016E51CF
:101160000A0DF35000080001682500016D6F0001B1
:101170006B0700016A076CC065F000016B51D1EC90
:1011800008F0010E0001636F00016D51300F45EC56
:101190000AF06EC068F06FC069F000016A67CCD7D2
:1011A00012000001676F040E0001655DD8B032D0F7
:1011B000130E0001676501D02DD067C046F065C0F1
:1011C00047F067C066F000016551010D010EF32480
:1011D000F66E080EF420F76E0800F5500001662741
:1011E000FA0E00F0E82EFDD7000E0001636F00013B
:1011F000665145EC0AF0FA0E00F0E82EFDD7000E1D
:101200000001636F0001665145EC0AF0FA0E00F030
:10121000E82EFDD7120003EE00F0C80EEE6AE806D5
:10122000FDE102EE00F0C80EEE6AE806FDE101EE17
:1012300000F0C80EEE6AE806FDE100EE73F0100E55
:10124000EE6AE806FDE100EE2BF0220EEE6AE806FB
:10125000FDE10E0EF66E150EF76E000EF86E09002B
:10126000F5CF83F00900F5CF84F0000EF86E000191
:10127000ABEF05F002C008F001C007F014D005067E
:10128000D8A0060603C0D9FF04C0DAFF034A042A27
:1012900007C0E1FF08C0E2FF074A082ADFCFE7FFE7
:1012A000E750D8B40DD006500510D8B409D0E7D710
:1012B00007C0D9FF08C0DAFF000EDF6E074A082A10
:1012C0000506D8A006060528D8B40628D8B412000A
:1012D000EFD7ACA2FED719C0F6FF1AC0F7FFF86A25
:1012E000070EF76403D00800F55005D0F6CFE1FFF4
:1012F000F7CFE2FFE7507EEC0AF019501B6E1A5050
:101300001C6E194A1A2A1BC0F6FF1CC0F7FFF86AA8
:10131000070EF76403D00800F55005D0F6CFE1FFC3
:10132000F7CFE2FFE7500009D8B41200D2D712C0BD
:1013300018F011C017F01450800AF36E800EF35CA1
:10134000000ED8B4135CD8B00CD011C0D9FF12C0B5
:10135000DAFF2D0EDF6E114A122A136C141ED8B05C
:10136000142A12C009F011C008F013C00AF014C00A
:101370000BF015C00CF016C00DF080EC07F018C093
:1013800012F017C011F01200000E066E000E056E6E
:1013900004500310D8B41CD0010E076E04D0D890AE
:1013A00003360436072A04AEFAD7D8900536063637
:1013B0000350015C04500258D8A005D00350015ED0
:1013C0000450025A0580D89004320332072EEDD71C
:1013D00005C001F006C002F01200000160C062F01A
:1013E000000161C063F0060ED890000162376337D8
:1013F000E82EFAD762C064F063C065F065C0BEFF36
:1014000064C062F00001D89062330001D89062336A
:10141000300E00016217BD50CF0B00016211BD6E8E
:10142000120004500310D8B418D0010E056E04D079
:10143000D89003360436052A04AEFAD70350015C6F
:1014400004500258D8A004D00350015E0450025A40
:10145000D89004320332052EF1D701C001F002C04A
:1014600002F0120001500302F3CF05F0F4CF06F0B2
:1014700001500402F350062602500302F3500626E0
:1014800005C001F006C002F012000001646F63C0E5
:1014900060F0000164390F0B1FEC07F063C060F0CF
:1014A000000164511FEC07F01200036E000E026E83
:1014B0003A0E035CD8B005D02F0E036402D0010EA3
:1014C000026E02C001F001301200F20E4316ABAC06
:1014D00003D04390ABB04380ABB44384ABB24386FC
:1014E000AECF01F0015012000001606F0C0EBD1272
:1014F0009494CA9460C0CBFFCA841200016EACAC55
:1015000003D0AC9043B2AC8001C0ADFF12000A0022
:020000040020DA
:08000000FFFFFFFFFFFFFFFF00
:020000040030CA
:0E000000000C1F1EFF8381FF0FC00FE00F409A
:00000001FF
