:040000000CEF00F011
:10000800FACF39F0FBCF3AF0E9CF3BF003ED04F03B
:04001800B9EF08F044
:100800000080C094D4000600EACF3CF0E1CF3DF078
:10081000E2CF3EF0D9CF3FF0DACF40F0F3CF41F056
:10082000F4CF42F0F6CF43F0F7CF44F0F8CF45F0E5
:10083000F5CF46F09EAAE7D00650800AF36E800EF0
:10084000F35CC80ED8B4055CD8B0B9D00101000E75
:100850000524D96E0101010E0620DA6E37EC09F08D
:10086000DF6E0101000E0524D96E0101010E062084
:10087000DA6E0D0EDF629FD00BC036F0100E376EB1
:10088000000E27EC09F06CD00201000E0724D96E8F
:100890000201020E0820DA6E000EDF6E0706D8A0F5
:1008A00008060850800AF36E800EF35C010ED8B47F
:1008B000075CD8B0E9D7000E086E000E076E020183
:1008C000020E2F6E0201000E2E6E0101010E316E1E
:1008D0000101000E306ED6EC08F00101010E2F6E02
:1008E0000101000E2E6EEDEC08F02EC003F02FC0BB
:1008F00004F03DD00301000E0724D96E0301030E5E
:100900000820DA6E000EDF6E0706D8A00806085031
:10091000800AF36E800EF35C010ED8B4075CD8B089
:10092000E9D7000E086E000E076E0301030E2F6E4E
:100930000301000E2E6E0101010E316E0101000E49
:10094000306ED6EC08F00101010E2F6E0101000E91
:100950002E6EEDEC08F02EC001F02FC002F007D093
:100960000B50000AD8B49DD7010AD8B4D0D70101E2
:10097000010E306E0101000E2F6E04EC09F08C7236
:10098000010E0B1A0DD00101000E0524D96E0101D4
:10099000010E0620DA6E000EDF6E0506D8A00606F0
:1009A0000650800AF36E800EF35C010ED8B4055C2D
:1009B000D8B0E9D724D0054A062A9E9A24D001014E
:1009C000010E306E0101000E2F6E04EC09F00DD007
:1009D0000101000E0524D96E0101010E0620DA6E18
:1009E000000EDF6E0506D8A006060650800AF36EDC
:1009F000800EF35C010ED8B4055CD8B0E9D7000EC8
:100A0000066E000E056E46C0F5FF45C0F8FF44C0F7
:100A1000F7FF43C0F6FF42C0F4FF41C0F3FF40C000
:100A2000DAFF3FC0D9FF3EC0E2FF3DC0E1FF3CC05E
:100A3000EAFF3BC0E9FF3AC0FBFF39C0FAFF1100F3
:100A4000000E00016D6F000E00016E6F800E946E3F
:100A5000000E956E4F0EAB16AC9ACF0E9D167C0E07
:100A600000016D6F4D0E00016E6F00016EC060F0F1
:100A70000001616B00016D5197EC07F09E9A9F9AFF
:100A80009D8AF28C9E9AF28EFDEC05F0000E00011C
:100A9000636F010E17EC09F0140E00016C6F7A0EF3
:100AA000E82EFED76C2FFCD7000E0001656F000EFC
:100AB0004EEC08F0000E0001656F000E4EEC08F0E1
:100AC000000E0001616F1E0E0001606F0201020E38
:100AD0000001636F0201000E0001626F000E000151
:100AE000656F100E0001646FD7EC07F0000E000177
:100AF000696F1E0E0001686F13EC08F0010E000113
:100B0000656F000E4EEC08F0000E0001616F0E0ED6
:100B10000001606F0301030E0001636F0301000E0B
:100B20000001626F000E0001656F100E0001646F1E
:100B3000D7EC07F0000E0001696F0E0E0001686F20
:100B400013EC08F00450800A800F110ED8B4035C37
:100B5000D8A00ED00201020E0001616F0201000E4A
:100B60000001606F03C062F004C063F075EC06F032
:100B70000250800A800F110ED8B4015CD8A00ED0AC
:100B80000301030E0001616F0301000E0001606F9D
:100B900001C062F002C063F075EC06F0C30E000104
:100BA0006C6FCD0EE82EFED76C2FFCD700F0C30E75
:100BB00000016C6FCD0EE82EFED76C2FFCD700F035
:100BC000C30E00016C6FCD0EE82EFED76C2FFCD744
:100BD00000F0C30E00016C6FCD0EE82EFED76C2F17
:100BE000FCD700F0C30E00016C6FCD0EE82EFED7CF
:100BF0006C2FFCD700F08C705DD7140E0001656F70
:100C00007A0EE82EFED7652FFCD7000E0001606F2C
:100C1000030EE9EC06F0070E0001656F7D0EE82E6D
:100C2000FED7652FFCD700F0000E0001606F030EA9
:100C3000E9EC06F0070E0001656F7D0EE82EFED789
:100C4000652FFCD700F0000E0001606F030EE9EC89
:100C500006F0070E0001656F7D0EE82EFED7652FAA
:100C6000FCD700F0000E0001606F020EE9EC06F008
:100C7000000E0001636F280E17EC09F0070E00014B
:100C8000656F7D0EE82EFED7652FFCD700F0000EB5
:100C90000001636F0C0E17EC09F0070E0001656F81
:100CA0007D0EE82EFED7652FFCD700F0000E000168
:100CB000636F010E17EC09F0070E0001656F7D0EE2
:100CC000E82EFED7652FFCD700F0000E0001636F01
:100CD000060E17EC09F0070E0001656F7D0EE82E79
:100CE000FED7652FFCD700F0120060C0D9FF61C0AD
:100CF000DAFFDF500001696F000E00016B6F000E1C
:100D000000016A6F23D0010E00016A250001646FA3
:100D1000000E00016B210001656F000164510001AC
:100D20006025D96E0001655100016121DA6E000174
:100D30006A5100016025E16E00016B5100016121E3
:100D4000E26EDFCFE7FF00016A4B6B2BFF0E000165
:100D5000646FFF0E656F000162C066F0000163C042
:100D600067F0000164510001662700016551000130
:100D7000672300016B51800A0001686F6651000112
:100D80006A5D00016751800A00016859D8A0BBD78D
:100D9000FF0E0001646FFF0E656F000162C066F018
:100DA000000163C067F00001645100016627000183
:100DB0006551000167230001665100016025D96E6D
:100DC0000001675100016121DA6E000169C0DFFF97
:100DD00012000001626F000160B102D08C9401D05A
:100DE0008C84210EE82EFED700F062C061F0010E67
:100DF000000161170001613B8C5000016119EF0B8C
:100E000061198C6E62C061F00001D8906133010EEF
:100E1000000161170001613B61478C5000016119BD
:100E2000DF0B61198C6E62C061F00001D8906133F4
:100E30000001D8906133010E000161170001613B90
:100E4000614761478C5000016119BF0B61198C6EBD
:100E500062C061F00001D89061330001D890613325
:100E60000001D8906133010E000161170001613368
:100E700061338C50000161197F0B61198C6E8C8677
:100E8000420EE82EFED700D08C96A60EE82EFED796
:100E900000D01200306E2EB002D08C9401D08C8421
:100EA000210EE82EFED700F030C02FF0010E2F16D5
:100EB0002F3A8C502F18EF0B2F188C6E30C02FF05C
:100EC000D8902F32010E2F162F3A2F468C502F1804
:100ED000DF0B2F188C6E30C02FF0D8902F32D890A7
:100EE0002F32010E2F162F3A2F462F468C502F18D7
:100EF000BF0B2F188C6E30C02FF0D8902F32D890A7
:100F00002F32D8902F32010E2F162F322F328C50C5
:100F10002F187F0B2F188C6E8C86420EE82EFED772
:100F200000D08C96A60EE82EFED700D0120000014D
:100F3000656F000EAC6E000EAB6E000165B1AC8843
:100F4000000165A302D0AC8CAB8C000165B5AC8E02
:100F5000000165A702D0AB8801D0AB8A000165B95A
:100F6000AC849E98000165BBAB86000165AD02D0E4
:100F70009D8A01D09D9A9E9A000165AF02D09D88FE
:100F800001D09D9860C0AFFF000161C062F062C0F7
:100F900063F00001646B00016351B06EAC8AAB8EEC
:100FA000949C948EACB8ACBE01D0948C120000011D
:100FB00061C067F0000160C066F01BD000016407EB
:100FC000D8A06507000162C0D9FF000163C0DAFF45
:100FD0000001624B632B000166C0E1FF000167C0A6
:100FE000E2FF0001664B672BDFCFE7FFE750D8B485
:100FF0000FD0000165516411D8B40AD0DFD766C0A4
:10100000D9FF67C0DAFF000EDF6E0001664B672B69
:1010100000016407D8A0650700016429D8B46529D8
:10102000D8B41200ECD732D068C0D9FF69C0DAFF5B
:10103000DF500A0AD8B40AD0010E0001636F68C0FD
:10104000D9FF69C0DAFFDF5017EC09F00C2A0C5009
:10105000100AD8B407D00A0E68C0D9FF69C0DAFFF9
:10106000DF6211D00D2A0D50020AD8A407D0000E5D
:101070000001656F000E4EEC08F005D00DC065F064
:10108000000E4EEC08F00001684B692B68C0D9FFD8
:1010900069C0DAFFDF50D8B41200C6D70001676F0D
:1010A000040E0001655DD8B032D0130E00016765F3
:1010B00001D02DD067C00CF065C00DF067C066F0A0
:1010C00000016551010D010EF324F66E080EF420A7
:1010D000F76E0800F55000016627FA0E00F0E82EC2
:1010E000FDD7000E0001636F0001665117EC09F097
:1010F000FA0E00F0E82EFDD7000E0001636F00012C
:10110000665117EC09F0FA0E00F0E82EFDD7120038
:10111000356E040E335CD8B02BD0130E356401D07D
:1011200027D035C00CF033C00DF035C034F033504B
:10113000010D010EF324F66E080EF420F76E080080
:10114000F5503426FA0E00F0E82EFDD7000E316E71
:10115000345046EC09F0FA0E00F0E82EFDD7000EF0
:10116000316E345046EC09F0FA0E00F0E82EFDD74F
:10117000120003EE00F0C80EEE6AE806FDE102EE92
:1011800000F0C80EEE6AE806FDE101EE00F0C80EC0
:10119000EE6AE806FDE100EE01F02D0EEE6AE806CB
:1011A000FDE1000EF86E000120EF05F02FC033F0D6
:1011B0002EC032F004D0324A332A304A312A30C0AD
:1011C000D9FF31C0DAFF32C0E1FF33C0E2FFDFCF29
:1011D000E7FFE750D8B41200EED7000E316E000ED4
:1011E000306E02D0304A312A30502E24D96E315020
:1011F0002F20DA6E0D0EDF62F5D7010E30242E6E31
:10120000000E31202F6E1200ACA2FED72FC0D9FFE6
:1012100030C0DAFFDF5053EC09F02FC0D9FF30C0E7
:10122000DAFF2F4A302ADF50D8B41200EDD7000180
:10123000646F63C060F0000164390F0BE9EC06F0E5
:1012400063C060F000016451E9EC06F01200386EF2
:1012500036C033F0385088EC08F006D0010E316EFD
:10126000200E46EC09F037063766F8D71200F20E6A
:101270000916ABAC03D00990ABB00980ABB40984BC
:10128000ABB20986AECF2EF02E501200326E31C0B6
:101290002EF032380F0B4AEC07F031C02EF03250EE
:1012A0004AEC07F012002E6EACAC03D0AC9009B241
:0812B000AC802EC0ADFF12005E
:020000040020DA
:08000000FFFFFFFFFFFFFFFF00
:020000040030CA
:0E000000000C1F1EFF8381FF0FC00FE00F409A
:00000001FF
