:040000000CEF00F011
:10000800FACF3DF0FBCF3EF0E9CF3FF003ED04F02F
:0400180001EF09F0FB
:100800000080C094D4000600EACF40F0E1CF41F070
:10081000E2CF42F0D9CF43F0DACF44F0F3CF45F046
:10082000F4CF46F0F6CF47F0F7CF48F0F8CF49F0D5
:10083000F5CF4AF09EAA0FD10650800AF36E800EC3
:10084000F35CC80ED8B4055CD8B0E1D00101000E4D
:100850000524D96E0101010E0620DA6EAFEC09F015
:10086000DF6E0101000E0524D96E0101010E062084
:10087000DA6E0D0EDF62C7D00BC036F0100E376E89
:10088000000E9FEC09F094D00201000E0724D96EEF
:100890000201020E0820DA6E000EDF6E0706D8A0F5
:1008A00008060850800AF36E800EF35C010ED8B47F
:1008B000075CD8B0E9D7000E086E000E076E020183
:1008C000020E2F6E0201000E2E6E0101010E316E1E
:1008D0000101000E306E4EEC09F00101010E2F6E89
:1008E0000101000E2E6E65EC09F02EC003F02FC042
:1008F00004F0FF0E396EFF0E3A6E03C03BF004C0E9
:100900003CF039503B263A503C220201000E3B2479
:10091000D96E0201020E47D00301000E0724D96EE2
:100920000301030E0820DA6E000EDF6E0706D8A062
:1009300008060850800AF36E800EF35C010ED8B4EE
:10094000075CD8B0E9D7000E086E000E076E0301F1
:10095000030E2F6E0301000E2E6E0101010E316E8B
:100960000101000E306E4EEC09F00101010E2F6EF8
:100970000101000E2E6E65EC09F02EC001F02FC0B3
:1009800002F0FF0E396EFF0E3A6E01C03BF002C05E
:100990003CF039503B263A503C220301000E3B24E8
:1009A000D96E0301030E3C20DA6E200EDF6E07D0F5
:1009B0000B50000AD8B475D7010AD8B4BAD70101D0
:1009C000010E306E0101000E2F6E7CEC09F08C726E
:1009D000010E0B1A0DD00101000E0524D96E010184
:1009E000010E0620DA6E000EDF6E0506D8A00606A0
:1009F0000650800AF36E800EF35C010ED8B4055CDD
:100A0000D8B0E9D724D0054A062A9E9A24D00101FD
:100A1000010E306E0101000E2F6E7CEC09F00DD03E
:100A20000101000E0524D96E0101010E0620DA6EC7
:100A3000000EDF6E0506D8A006060650800AF36E8B
:100A4000800EF35C010ED8B4055CD8B0E9D7000E77
:100A5000066E000E056E4AC0F5FF49C0F8FF48C09B
:100A6000F7FF47C0F6FF46C0F4FF45C0F3FF44C0A0
:100A7000DAFF43C0D9FF42C0E2FF41C0E1FF40C0FE
:100A8000EAFF3FC0E9FF3EC0FBFF3DC0FAFF110097
:100A9000000E00016D6F000E00016E6F800E946EEF
:100AA000000E956E4F0EAB16AC9ACF0E9D167C0EB7
:100AB00000016D6F4D0E00016E6F00016EC060F0A1
:100AC0000001616B00016D51DFEC07F09E9A9F9A67
:100AD0009D8AF28C9E9AF28E070ECA6EBB0ECBECEC
:100AE00009F04BC060F04CC061F02AEC09F045EC15
:100AF00006F0000E0001636F010E8FEC09F0140E7A
:100B000000016C6F7A0EE82EFED76C2FFCD7000E1A
:100B10000001656F000E96EC08F0000E0001656F95
:100B2000000E96EC08F0000E0001616F1E0E000131
:100B3000606F0201020E0001636F0201000E0001EE
:100B4000626F000E0001656F100E0001646F1FECF4
:100B500008F0000E0001696F1E0E0001686F5BEC6B
:100B600008F0010E0001656F000E96EC08F0000E13
:100B70000001616F0E0E0001606F0301030E0001A2
:100B8000636F0301000E0001626F000E0001656FCC
:100B9000100E0001646F1FEC08F0000E0001696F79
:100BA0000E0E0001686F5BEC08F00450800A800FA5
:100BB000110ED8B4035CD8A00ED00201020E0001C1
:100BC000616F0201000E0001606F03C062F004C09B
:100BD00063F0BDEC06F00250800A800F110ED8B40D
:100BE000015CD8A00ED00301030E0001616F030168
:100BF000000E0001606F01C062F002C063F0BDEC46
:100C000006F0C30E00016C6FCD0EE82EFED76C2FE0
:100C1000FCD700F0C30E00016C6FCD0EE82EFED79E
:100C20006C2FFCD700F0C30E00016C6FCD0EE82EC8
:100C3000FED76C2FFCD700F0C30E00016C6FCD0EF9
:100C4000E82EFED76C2FFCD700F0C30E00016C6FAE
:100C5000CD0EE82EFED76C2FFCD700F08C70FC0E6A
:100C60004B5C030E4C58D8B005D00A0E4B26000E34
:100C70004C2204D0000E4C6E0A0E4B6E4BC060F03E
:100C80004CC061F02AEC09F048D7140E0001656FE2
:100C90007A0EE82EFED7652FFCD7000E0001606F9C
:100CA000030E31EC07F0070E0001656F7D0EE82E94
:100CB000FED7652FFCD700F0000E0001606F030E19
:100CC00031EC07F0070E0001656F7D0EE82EFED7B0
:100CD000652FFCD700F0000E0001606F030E31ECB1
:100CE00007F0070E0001656F7D0EE82EFED7652F19
:100CF000FCD700F0000E0001606F020E31EC07F02F
:100D0000000E0001636F280E8FEC09F0070E000142
:100D1000656F7D0EE82EFED7652FFCD700F0000E24
:100D20000001636F0C0E8FEC09F0070E0001656F78
:100D30007D0EE82EFED7652FFCD700F0000E0001D7
:100D4000636F010E8FEC09F0070E0001656F7D0ED9
:100D5000E82EFED7652FFCD700F0000E0001636F70
:100D6000060E8FEC09F0070E0001656F7D0EE82E70
:100D7000FED7652FFCD700F0120060C0D9FF61C01C
:100D8000DAFFDF500001696F000E00016B6F000E8B
:100D900000016A6F23D0010E00016A250001646F13
:100DA000000E00016B210001656F0001645100011C
:100DB0006025D96E0001655100016121DA6E0001E4
:100DC0006A5100016025E16E00016B510001612153
:100DD000E26EDFCFE7FF00016A4B6B2BFF0E0001D5
:100DE000646FFF0E656F000162C066F0000163C0B2
:100DF00067F00001645100016627000165510001A0
:100E0000672300016B51800A0001686F6651000181
:100E10006A5D00016751800A00016859D8A0BBD7FC
:100E2000FF0E0001646FFF0E656F000162C066F087
:100E3000000163C067F000016451000166270001F2
:100E40006551000167230001665100016025D96EDC
:100E50000001675100016121DA6E000169C0DFFF06
:100E600012000001626F000160B102D08C9401D0C9
:100E70008C84210EE82EFED700F062C061F0010ED6
:100E8000000161170001613B8C5000016119EF0BFB
:100E900061198C6E62C061F00001D8906133010E5F
:100EA000000161170001613B61478C50000161192D
:100EB000DF0B61198C6E62C061F00001D890613364
:100EC0000001D8906133010E000161170001613B00
:100ED000614761478C5000016119BF0B61198C6E2D
:100EE00062C061F00001D89061330001D890613395
:100EF0000001D8906133010E0001611700016133D8
:100F000061338C50000161197F0B61198C6E8C86E6
:100F1000420EE82EFED700D08C96A60EE82EFED705
:100F200000D01200306E2EB002D08C9401D08C8490
:100F3000210EE82EFED700F030C02FF0010E2F1644
:100F40002F3A8C502F18EF0B2F188C6E30C02FF0CB
:100F5000D8902F32010E2F162F3A2F468C502F1873
:100F6000DF0B2F188C6E30C02FF0D8902F32D89016
:100F70002F32010E2F162F3A2F462F468C502F1846
:100F8000BF0B2F188C6E30C02FF0D8902F32D89016
:100F90002F32D8902F32010E2F162F322F328C5035
:100FA0002F187F0B2F188C6E8C86420EE82EFED7E2
:100FB00000D08C96A60EE82EFED700D012000001BD
:100FC000656F000EAC6E000EAB6E000165B1AC88B3
:100FD000000165A302D0AC8CAB8C000165B5AC8E72
:100FE000000165A702D0AB8801D0AB8A000165B9CA
:100FF000AC849E98000165BBAB86000165AD02D054
:101000009D8A01D09D9A9E9A000165AF02D09D886D
:1010100001D09D9860C0AFFF000161C062F062C066
:1010200063F00001646B00016351B06EAC8AAB8E5B
:10103000949C948EACB8ACBE01D0948C120000018C
:1010400061C067F0000160C066F01BD0000164075A
:10105000D8A06507000162C0D9FF000163C0DAFFB4
:101060000001624B632B000166C0E1FF000167C015
:10107000E2FF0001664B672BDFCFE7FFE750D8B4F4
:101080000FD0000165516411D8B40AD0DFD766C013
:10109000D9FF67C0DAFF000EDF6E0001664B672BD9
:1010A00000016407D8A0650700016429D8B4652948
:1010B000D8B41200ECD732D068C0D9FF69C0DAFFCB
:1010C000DF500A0AD8B40AD0010E0001636F68C06D
:1010D000D9FF69C0DAFFDF508FEC09F00C2A0C5001
:1010E000100AD8B407D00A0E68C0D9FF69C0DAFF69
:1010F000DF6211D00D2A0D50020AD8A407D0000ECD
:101100000001656F000E96EC08F005D00DC065F08B
:10111000000E96EC08F00001684B692B68C0D9FFFF
:1011200069C0DAFFDF50D8B41200C6D70001676F7C
:10113000040E0001655DD8B032D0130E0001676562
:1011400001D02DD067C00CF065C00DF067C066F00F
:1011500000016551010D010EF324F66E080EF42016
:10116000F76E0800F55000016627FA0E00F0E82E31
:10117000FDD7000E0001636F000166518FEC09F08E
:10118000FA0E00F0E82EFDD7000E0001636F00019B
:1011900066518FEC09F0FA0E00F0E82EFDD7120030
:1011A000356E040E335CD8B02BD0130E356401D0ED
:1011B00027D035C00CF033C00DF035C034F03350BB
:1011C000010D010EF324F66E080EF420F76E0800F0
:1011D000F5503426FA0E00F0E82EFDD7000E316EE1
:1011E0003450BEEC09F0FA0E00F0E82EFDD7000EE8
:1011F000316E3450BEEC09F0FA0E00F0E82EFDD747
:10120000120003EE00F0C80EEE6AE806FDE102EE01
:1012100000F0C80EEE6AE806FDE101EE00F0C80E2F
:10122000EE6AE806FDE100EE01F02D0EEE6AE8063A
:10123000FDE1BC0EF66E130EF76E000EF86E09009F
:10124000F5CF4BF00900F5CF4CF0000EF86E000121
:1012500048EF05F0000160C062F0000161C063F07A
:10126000060ED890000162376337E82EFAD762C0C5
:1012700064F063C065F065C0BEFF64C062F0000149
:10128000D89062330001D8906233300E00016217AB
:10129000BD50CF0B00016211BD6E12002FC033F0A4
:1012A0002EC032F004D0324A332A304A312A30C0BC
:1012B000D9FF31C0DAFF32C0E1FF33C0E2FFDFCF38
:1012C000E7FFE750D8B41200EED7000E316E000EE3
:1012D000306E02D0304A312A30502E24D96E31502F
:1012E0002F20DA6E0D0EDF62F5D7010E30242E6E40
:1012F000000E31202F6E1200ACA2FED72FC0D9FFF6
:1013000030C0DAFFDF50D5EC09F02FC0D9FF30C074
:10131000DAFF2F4A302ADF50D8B41200EDD700018F
:10132000646F63C060F0000164390F0B31EC07F0AB
:1013300063C060F00001645131EC07F01200386EB8
:1013400036C033F03850D0EC08F006D0010E316EC4
:10135000200EBEEC09F037063766F8D71200F20E01
:101360000916ABAC03D00990ABB00980ABB40984CB
:10137000ABB20986AECF2EF02E501200326E31C0C5
:101380002EF032380F0B92EC07F031C02EF03250B5
:1013900092EC07F012000001606F0C0EBD129494E5
:1013A000CA9460C0CBFFCA8412002E6EACAC03D0CE
:0E13B000AC9009B2AC802EC0ADFF12000A0056
:020000040020DA
:08000000FFFFFFFFFFFFFFFF00
:020000040030CA
:0E000000000C1F1EFF8381FF0FC00FE00F409A
:00000001FF
