:040000000CEF00F011
:10000800FACF30F0FBCF31F0E9CF32F020ED04F039
:04001800D3EF07F02B
:100800000080C094D44D6F646966696361646F2031
:10081000656C20536574506F696E7420613A2000D6
:100820004572726F72206D617175696E6F6C610ACD
:100830000044757479204379636C653A20000000A8
:100840000600EACF33F0E1CF34F0E2CF35F0D9CF74
:1008500036F0DACF37F0F3CF38F0F4CF39F0F6CF07
:100860003AF0F7CF3BF0F8CF3CF0F5CF3DF09EAA41
:10087000A4D01650800AF36E800EF35CC80ED8B474
:10088000155CD8B076D00101000E1524D96E010197
:10089000010E1620DA6E9FEC08F0DF6E0101000EEB
:1008A0001524D96E0101010E1620DA6E0D0EDF62DD
:1008B0005CD0000E246E1E0E236E0101010E266E0A
:1008C0000101000E256E000E286E040E276E02EC4C
:1008D00008F0000E2A6E1E0E296EFFEC05F029C0EE
:1008E00017F02AC018F018BE21D01850800AF36EF5
:1008F000840EF35C000ED8B4175CD8B017D017C0C4
:1009000043F018C044F0080E256E050E246E31EC3D
:1009100008F0000E256E1E0E246E31EC08F0080E55
:10092000256E2F0E246E31EC08F014D0080E256EC3
:10093000200E246E31EC08F00DD00101000E1524BC
:10094000D96E0101010E1620DA6E000EDF6E15065B
:10095000D8A016061650800AF36E800EF35C010EC6
:10096000D8B4155CD8B0E9D724D0154A162A9E9A77
:1009700024D00101010E256E0101000E246E31EC20
:1009800008F00DD00101000E1524D96E0101010EF1
:100990001620DA6E000EDF6E1506D8A01606165069
:1009A000800AF36E800EF35C010ED8B4155CD8B0EB
:1009B000E9D7000E166E000E156E3DC0F5FF3CC067
:1009C000F8FF3BC0F7FF3AC0F6FF39C0F4FF38C06C
:1009D000F3FF37C0DAFF36C0D9FF35C0E2FF34C0BD
:1009E000E1FF33C0EAFF32C0E9FF31C0FBFF30C096
:1009F000FAFF1100000E00017C6F000E00017D6FF8
:100A0000800E946E000E956E4F0EAB16AC9ACF0E04
:100A10009D167C0E00017C6F4D0E00017D6F000164
:100A20007DC03EF03F6A00017C51F9EC06F09E9AD1
:100A30009F9A9D8AF28C9E9AF28E070ECA6EBB0E0A
:100A4000BBEC08F043C03EF044C03FF05FEC08F060
:100A50008FEC05F0000E416E010EAEEC08F0140EA6
:100A600000017B6F7A0EE82EFED77B2FFCD7000E9D
:100A70000001706F000E36EC07F043C03EF044C03A
:100A80003FF05FEC08F0000E0001706F000E36ECD6
:100A900007F0080E0001746F310E0001736FB1ECA6
:100AA00006F043C073F044C074F0040E0001756F8B
:100AB000000E0001766F010E0001776F6EEC07F0FB
:100AC000C30E00017B6FCD0EE82EFED77B2FFCD727
:100AD00000F0C30E00017B6FCD0EE82EFED77B2FFA
:100AE000FCD700F0C30E00017B6FCD0EE82EFED7C1
:100AF0007B2FFCD700F0C30E00017B6FCD0EE82EDC
:100B0000FED77B2FFCD700F0C30E00017B6FCD0E0C
:100B1000E82EFED77B2FFCD700F08C70AED7140EDA
:100B20000001706F7A0EE82EFED7702FFCD7000EF2
:100B30003E6E030E64EC06F0070E0001706F7D0E32
:100B4000E82EFED7702FFCD700F0000E3E6E030E8D
:100B500064EC06F0070E0001706F7D0EE82EFED7E4
:100B6000702FFCD700F0000E3E6E030E64EC06F012
:100B7000070E0001706F7D0EE82EFED7702FFCD798
:100B800000F0000E3E6E020E64EC06F0000E416EA8
:100B9000280EAEEC08F0070E0001706F7D0EE82EF7
:100BA000FED7702FFCD700F0000E416E0C0EAEEC9D
:100BB00008F0070E0001706F7D0EE82EFED7702F33
:100BC000FCD700F0000E416E010EAEEC08F0070EEF
:100BD0000001706F7D0EE82EFED7702FFCD700F05D
:100BE000000E416E060EAEEC08F0070E0001706FAD
:100BF0007D0EE82EFED7702FFCD700F0120002D039
:100C0000294A2A2A29C0D9FF2AC0DAFFDF50200A40
:100C1000D8B4F6D729C0D9FF2AC0DAFFDF50090AB5
:100C2000D8B4EED7000E2F6E000E2E6E000E2D6E75
:100C30002D0E29C0D9FF2AC0DAFFDF6202D02D2A8B
:100C400023D02B0E29C0D9FF2AC0DAFFDF621ED0C5
:100C50001BD02EC023F02FC024F0000E266E0A0EEB
:100C6000256E7CEC08F029C0D9FF2AC0DAFFDF50DE
:100C70002B6E2C6A23502B2624502C22D00E2B2492
:100C80002E6EFF0E2C202F6E294A2A2A29C0D9FF4A
:100C90002AC0DAFFDF508FEC08F0D8B0DAD72D5039
:100CA000D8B40DD02EC02BF02FC02CF02B1E2C1E34
:100CB0002B4A2C2A2BC029F02CC02AF004D02EC09D
:100CC00029F02FC02AF01200406E3EB002D08C9462
:100CD00001D08C84210EE82EFED700F040C03FF0FA
:100CE000010E3F163F3A8C503F18EF0B3F188C6EA9
:100CF00040C03FF0D8903F32010E3F163F3A3F468A
:100D00008C503F18DF0B3F188C6E40C03FF0D890DE
:100D10003F32D8903F32010E3F163F3A3F463F46A2
:100D20008C503F18BF0B3F188C6E40C03FF0D890DE
:100D30003F32D8903F32D8903F32010E3F163F32BB
:100D40003F328C503F187F0B3F188C6E8C86420EC2
:100D5000E82EFED700D08C96A60EE82EFED700D047
:100D600012003BD0000173C0F6FF000174C0F7FF12
:100D70000800F5500A0AD8B40CD0010E416E0001EB
:100D800073C0F6FF000174C0F7FF0800F550AEEC29
:100D900008F01C2A1C50100AD8B40BD0000173C0F4
:100DA000F6FF000174C0F7FF0800F5500A0AD8A446
:100DB00011D01D2A1D50020AD8A407D0000E000130
:100DC000706F000E36EC07F005D01DC070F0000EFD
:100DD00036EC07F00001734B742B000173C0F6FF73
:100DE000000174C0F7FF0800F5500009D8B41200E4
:100DF000B9D70001706F000EAC6E000EAB6E000133
:100E000070B1AC88000170A302D0AC8CAB8C000137
:100E100070B5AC8E000170A702D0AB8801D0AB8A50
:100E2000000170B9AC849E98000170BBAB860001D4
:100E300070AD02D09D8A01D09D9A9E9A000170AF3C
:100E400002D09D8801D09D983EC0AFFF3FC040F0CA
:100E500040C041F0426A4150B06EAC8AAB8E949C67
:100E6000948EACB8ACBE01D0948C12000001726FAD
:100E7000040E0001705DD8B030D0130E0001726511
:100E800001D02BD072C01CF070C01DF072C071F088
:100E900000017051010D010EF324F66E080EF420CE
:100EA000F76E0800F55000017127FA0E00F0E82EE9
:100EB000FDD7000E416E00017151AEEC08F0FA0E44
:100EC00000F0E82EFDD7000E416E00017151AEEC2E
:100ED00008F0FA0E00F0E82EFDD71200000175515F
:100EE000000176272CD073C03EF074C03FF0000E96
:100EF000416E0A0E406EA3EC07F03EC079F03FC091
:100F00007AF0000179510A0DF350000800017325B1
:100F10000001786F000176070001750777C070F057
:100F20000001765136EC07F0010E416E0001785158
:100F3000300FAEEC08F079C073F07AC074F00001A5
:100F40007567D1D71200000E0001716F000E00010D
:100F5000706F41504010D8B421D0010E0001726F63
:100F600005D0D890403641360001722B41AEF9D7FA
:100F70000001D8907037713740503E5C41503F5867
:100F8000D8A006D040503E5E41503F5A00017081CB
:100F9000D890413240320001722FEAD770C03EF043
:100FA00071C03FF0120003EE00F0C80EEE6AE806D2
:100FB000FDE102EE00F0C80EEE6AE806FDE101EE8A
:100FC00000F0C80EEE6AE806FDE100EE60F0100EDB
:100FD000EE6AE806FDE100EE01F0220EEE6AE80698
:100FE000FDE19A0EF66E110EF76E000EF86E090016
:100FF000F5CF43F00900F5CF44F0000EF86E000184
:10100000FAEF04F024C02AF023C029F014D02706F8
:10101000D8A0280625C0D9FF26C0DAFF254A262AEF
:1010200029C0E1FF2AC0E2FF294A2A2ADFCFE7FFD1
:10103000E750D8B40DD028502710D8B409D0E7D73E
:1010400029C0D9FF2AC0DAFF000EDF6E294A2A2AFA
:101050002706D8A028062728D8B42828D8B41200F4
:10106000EFD7ACA2FED724C0F6FF25C0F7FFF86A81
:10107000070EF76403D00800F55005D0F6CFE1FF66
:10108000F7CFE2FFE750C4EC08F02450266E25505D
:10109000276E244A252A26C0F6FF27C0F7FFF86AE4
:1010A000070EF76403D00800F55005D0F6CFE1FF36
:1010B000F7CFE2FFE7500009D8B41200D2D73EC004
:1010C00040F03FC041F0060ED89040364136E82E41
:1010D000FBD740C070F041C071F071C0BEFF70C05E
:1010E00040F0D8904032D8904032300E4016BD507B
:1010F000CF0B4010BD6E120023502502F3CF27F016
:10110000F4CF28F023502602F3502826245025023D
:10111000F350282627C023F028C024F01200256EA3
:10112000000E246E3A0E255CD8B005D02F0E256433
:1011300002D0010E246E24C023F023301200F20EE0
:101140001916ABAC03D01990ABB01980ABB41984AD
:10115000ABB21986AECF23F023501200426E41C0CD
:101160003EF042380F0B64EC06F041C03EF04250B6
:1011700064EC06F012003E6E0C0EBD129494CA94FC
:101180003EC0CBFFCA841200236EACAC03D0AC903F
:0C11900019B2AC8023C0ADFF12000A00B1
:020000040020DA
:08000000FFFFFFFFFFFFFFFF00
:020000040030CA
:0E000000000C1F1EFF8381FF0FC00FE00F409A
:00000001FF
