:040000000CEF00F011
:10000800FACF02F0FBCF03F0E9CF04F046ED05F09C
:0400180045EF06F0BA
:100800000080C094D4486F6C61204D756E646F0099
:100810000000000E1B6E000E1C6E800E946E000E0B
:10082000956E4F0EAB16AC9ACF0E9D167C0E1B6EBE
:100830004D0E1C6E1CC010F0116A1B50C4EC05F06C
:100840009E9A9F9A9D8AF28C9E9AF28E91EC04F069
:10085000000E136E010E38EC06F0140E1A6E7A0EAE
:10086000E82EFED71A2EFCD7000E156E000EF8ECFF
:1008700005F0080E196E050E186E86EC05F0C30E15
:100880001A6ECD0EE82EFED71A2EFCD700F0C30E3E
:100890001A6ECD0EE82EFED71A2EFCD700F0C30E2E
:1008A0001A6ECD0EE82EFED71A2EFCD700F0C30E1E
:1008B0001A6ECD0EE82EFED71A2EFCD700F0C30E0E
:1008C0001A6ECD0EE82EFED71A2EFCD700F0C30EFE
:1008D0001A6ECD0EE82EFED71A2EFCD700F0C30EEE
:1008E0001A6ECD0EE82EFED71A2EFCD700F0C30EDE
:1008F0001A6ECD0EE82EFED71A2EFCD700F0C30ECE
:100900001A6ECD0EE82EFED71A2EFCD700F0C30EBD
:100910001A6ECD0EE82EFED71A2EFCD700F08C7082
:10092000AED7140E156E7A0EE82EFED7152EFCD714
:10093000000E106E030EF9EC04F0070E156E7D0E1E
:10094000E82EFED7152EFCD700F0000E106E030E19
:10095000F9EC04F0070E156E7D0EE82EFED7152E6D
:10096000FCD700F0000E106E030EF9EC04F0070E39
:10097000156E7D0EE82EFED7152EFCD700F0000E6A
:10098000106E020EF9EC04F0000E136E280E38EC17
:1009900006F0070E156E7D0EE82EFED7152EFCD73D
:1009A00000F0000E136E0C0E38EC06F0070E156EFC
:1009B0007D0EE82EFED7152EFCD700F0000E136E2C
:1009C000010E38EC06F0070E156E7D0EE82EFED7F0
:1009D000152EFCD700F0000E136E060E38EC06F054
:1009E000070E156E7D0EE82EFED7152EFCD700F0F3
:1009F0001200126E10B002D08C9401D08C84210EA3
:100A0000E82EFED700F012C011F0010E1116113AB7
:100A10008C501118EF0B11188C6E12C011F0D89079
:100A20001132010E1116113A11468C501118DF0BBC
:100A300011188C6E12C011F0D8901132D89011326A
:100A4000010E1116113A114611468C501118BF0BA8
:100A500011188C6E12C011F0D8901132D89011324A
:100A6000D8901132010E1116113211328C5011181A
:100A70007F0B11188C6E8C86420EE82EFED700D0AC
:100A80008C96A60EE82EFED700D012000600EACF04
:100A900005F0E1CF06F0E2CF07F0D9CF08F0DACFCA
:100AA00009F0F3CF0AF0F4CF0BF0F6CF0CF0F7CF4C
:100AB0000DF0F8CF0EF0F5CF0FF09EAA0AD09E9A57
:100AC00029EC06F01E6EACA2FED71E5050EC06F0CC
:100AD0008C720FC0F5FF0EC0F8FF0DC0F7FF0CC001
:100AE000F6FF0BC0F4FF0AC0F3FF09C0DAFF08C02D
:100AF000D9FF07C0E2FF06C0E1FF05C0EAFF04C05E
:100B0000E9FF03C0FBFF02C0FAFF110033D018C099
:100B1000F6FF19C0F7FF0800F5500A0AD8B40AD04A
:100B2000010E136E18C0F6FF19C0F7FF0800F5504C
:100B300038EC06F01F2A1F50100AD8B409D018C08C
:100B4000F6FF19C0F7FF0800F5500A0AD8A410D024
:100B5000202A2050020AD8A406D0000E156E000EDE
:100B6000F8EC05F005D020C015F0000EF8EC05F00B
:100B7000184A192A18C0F6FF19C0F7FF0800F550E7
:100B80000009D8B41200C3D7156E000EAC6E000E6B
:100B9000AB6E15B0AC8815A202D0AC8CAB8C15B482
:100BA000AC8E15A602D0AB8801D0AB8A15B8AC8448
:100BB0009E9815BAAB8615AC02D09D8A01D09D9A3D
:100BC0009E9A15AE02D09D8801D09D9810C0AFFFAF
:100BD00011C012F012C013F0146A1350B06EAC8A38
:100BE000AB8E949C948EACB8ACBE01D0948C1200A9
:100BF000176E040E155CD8B02BD0130E176401D0FD
:100C000027D017C01FF015C020F017C016F01550E0
:100C1000010D010EF324F66E080EF420F76E0800A5
:100C2000F5501626FA0E00F0E82EFDD7000E136ED2
:100C3000165038EC06F0FA0E00F0E82EFDD7000E44
:100C4000136E165038EC06F0FA0E00F0E82EFDD7C1
:100C50001200F20E1D16ABAC03D01D90ABB01D8080
:100C6000ABB41D84ABB21D86AECF01F001501200B3
:100C7000146E13C010F014380F0BF9EC04F013C00D
:100C800010F01450F9EC04F01200206A1F6A1E6A7A
:100C90001D6A000EF86E080EF76E000109EF04F0F1
:100CA000016EACAC03D0AC901DB2AC8001C0ADFF06
:020CB000120030
:020000040020DA
:08000000FFFFFFFFFFFFFFFF00
:020000040030CA
:0E000000000C1F1EFF8381FF0FC00FE00F409A
:00000001FF
